:100000000C942A000C9458000C94B5000C943C00FD
:100010000C943C000C943C000C943C000C943C0070
:100020000C943C000C943E000C943C000C943C005E
:100030000C943C000C943C000C943C000C943C0050
:100040000C943C000C943C000C943C000C943C0040
:100050000C943C0011241FBECFE5D8E0DEBFCDBF1D
:1000600020E0A0E6B0E001C01D92AF36B207E1F794
:100070000E9428010C94A6020C9400001F920F927B
:100080000FB60F9211248F9378948091660081119E
:1000900004C080916500882329F0809162008F5F01
:1000A000809362008F910F900FBE0F901F90189554
:1000B0001F920F920FB60F9211242F933F934F93DD
:1000C0005F936F937F938F939F93AF93BF93EF93C0
:1000D000FF937894809164008823B1F18091660049
:1000E000811108C081E08093660080916200809356
:1000F00061002AC0109266006091620080916100E8
:1001000070E0681B7109CB01770FAA0BBB0BDC01F8
:10011000992788272CB53DB5BC01CD01620F731F0F
:10012000811D911D0E94F10126E636E642EF51E461
:100130000E947D016093670070936800809369005E
:1001400090936A0010926400FF91EF91BF91AF917C
:100150009F918F917F916F915F914F913F912F91DF
:100160000F900FBE0F901F9018951F920F920FB611
:100170000F9211242F933F934F935F936F937F932D
:100180008F939F93AF93BF93EF93FF937894809156
:1001900063008823B1F180916500811108C081E07E
:1001A0008093650080916200809360002AC0109265
:1001B0006500609162008091600070E0681B7109C9
:1001C000CB01770FAA0BBB0BDC01992788272CB535
:1001D0003DB5BC01CD01620F731F811D911D0E94B1
:1001E000F10126E636E642EF51E40E947D0160937C
:1001F0006B0070936C0080936D0090936E00109272
:100200006300FF91EF91BF91AF919F918F917F918B
:100210006F915F914F913F912F910F900FBE0F9073
:100220001F90189582B38F7B82BB00C000C0000076
:1002300082B3806482BB81E080936400809363001A
:1002400083E08A95F1F7000082B38F7B82BB08952B
:1002500081B3806481BB82B38F7B82BB87B38360B1
:1002600087BB85B7807F85BF85B7856085BF8BB726
:10027000806C8BBF1FBC81E08EBD89B7846089BF55
:100280007894109262001DBC1CBC0E9412018BE489
:100290009DE10197F1F700C0000080916400811199
:1002A0001DC080916300811119C060916700709139
:1002B00068008091690090916A0020916B003091F4
:1002C0006C0040916D0050916E000E947D021816E6
:1002D0001CF481E088BBD5CF18BAD3CF80916400DD
:1002E000811102C018BACDCF80916300811103C083
:1002F00081E088BBC6CF18BAC4CF0E9491010C948C
:1003000043020E943C0258F00E94350240F029F45A
:100310005F3F29F00C942C0251110C9477020C943D
:1003200032020E94540268F39923B1F3552391F3EA
:10033000951B550BBB27AA2762177307840738F054
:100340009F5F5F4F220F331F441FAA1FA9F335D0B1
:100350000E2E3AF0E0E832D091505040E695001C65
:10036000CAF72BD0FE2F29D0660F771F881FBB1F1F
:10037000261737074807AB07B0E809F0BB0B802DFD
:10038000BF01FF2793585F4F3AF09E3F510578F029
:100390000C942C020C9477025F3FE4F3983ED4F364
:1003A000869577956795B795F7959F5FC9F7880FFD
:1003B000911D9695879597F90895E1E0660F771F4F
:1003C000881FBB1F621773078407BA0720F0621BE0
:1003D000730B840BBA0BEE1F88F7E0950895E89431
:1003E00009C097FB3EF490958095709561957F4F7D
:1003F0008F4F9F4F9923A9F0F92F96E9BB2793952B
:10040000F695879577956795B795F111F8CFFAF43A
:10041000BB0F11F460FF1BC06F5F7F4F8F4F9F4F6B
:1004200016C0882311F096E911C0772321F09EE8C9
:10043000872F762F05C0662371F096E8862F70E02F
:1004400060E02AF09A95660F771F881FDAF7880F09
:100450009695879597F9089597F99F6780E870E0DA
:1004600060E008959FEF80EC089500240A9416162A
:10047000170618060906089500240A941216130692
:10048000140605060895092E0394000C11F4882320
:1004900052F0BB0F40F4BF2B11F460FF04C06F5F3C
:1004A0007F4F8F4F9F4F089557FD9058440F551F12
:1004B00059F05F3F71F04795880F97FB991F61F0E6
:1004C0009F3F79F087950895121613061406551F5D
:1004D000F2CF4695F1DF08C0161617061806991FC9
:1004E000F1CF86957105610508940895E894BB27BE
:1004F00066277727CB0197F908950E94820208F4B6
:100500008FEF0895990F0008550FAA0BE0E8FEEF52
:1005100016161706E807F907C0F012161306E407C7
:10052000F50798F0621B730B840B950B39F40A26C0
:1005300061F0232B242B252B21F408950A2609F49E
:10054000A140A6958FEF811D811D0895F894FFCFDE
:00000001FF
