:100000000C942A000C9468000C943C000C943C0066
:100010000C943C000C943C000C943C000C943C0070
:100020000C943C000C943E000C943C000C943C005E
:100030000C943C000C943C000C943C000C943C0050
:100040000C943C000C943C000C943C000C943C0040
:100050000C943C0011241FBECFE5D8E0DEBFCDBF1D
:1000600020E0A0E6B0E001C01D92AB36B207E1F798
:100070000E94DD000C9489020C9400001F920F92E4
:100080000FB60F9211248F939F93AF93BF937894E1
:1000900080916600882399F08091620090916300BE
:1000A000A0916400B09165000196A11DB11D8093DF
:1000B000620090936300A0936400B0936500BF91C9
:1000C000AF919F918F910F900FBE0F901F90189539
:1000D0001F920F920FB60F9211242F933F934F93BD
:1000E0005F936F937F938F939F93AF93BF93EF93A0
:1000F000FF9378948091660081110EC081E0809317
:1001000066001092620010926300109264001092D8
:1001100065001DBC1CBC40C010926600809162004E
:1001200090916300A0916400B0916500DC01992773
:1001300088272CB53DB5BC01CD01620F731F811D11
:10014000911D0E94B50126E636E642EF51E40E9479
:1001500043016093670070936800809369009093F7
:100160006A006091670070916800809169009091C9
:100170006A0020E030E048E453E40E943E01882316
:100180003CF481E090E0909361008093600004C0B3
:100190001092610010926000FF91EF91BF91AF91BA
:1001A0009F918F917F916F915F914F913F912F918F
:1001B0000F900FBE0F901F90189560E875E280E0D9
:1001C00090E00E940C011ABA85B78C7F85BF85B775
:1001D000816085BF8BB780648BBF1FBC81E08EBD03
:1001E00089B7846089BF78940E9436018133E1F732
:1001F0008091600090916100019751F4C89B04C008
:1002000082E50E943A01F0CF8CE40E943A01ECCFE3
:1002100086E40E943A01E8CF22E02BB928E12AB90E
:1002200026E420BDDC01CB01880F991FAA1FBB1F4C
:10023000880F991FAA1FBB1F9C01AD01220F331FFE
:10024000441F551F60E472E48FE090E00E94670253
:100250008FEF820F89B9DA01C9010197A109B109AC
:10026000892F9A2FAB2FBB2780BD08955F9BFECFB0
:100270008CB108958CB95D9BFECF08950E94F20168
:1002800008F481E008950E9457010C942D020E9409
:10029000260258F00E941F0240F029F45F3F29F027
:1002A0000C94160251110C9461020C941C020E94D1
:1002B0003E0268F39923B1F3552391F3951B550B37
:1002C000BB27AA2762177307840738F09F5F5F4F29
:1002D000220F331F441FAA1FA9F335D00E2E3AF068
:1002E000E0E832D091505040E695001CCAF72BD080
:1002F000FE2F29D0660F771F881FBB1F26173707D1
:100300004807AB07B0E809F0BB0B802DBF01FF2702
:1003100093585F4F3AF09E3F510578F00C941602C7
:100320000C9461025F3FE4F3983ED4F38695779591
:100330006795B795F7959F5FC9F7880F911D9695BB
:10034000879597F90895E1E0660F771F881FBB1F17
:10035000621773078407BA0720F0621B730B840BC4
:10036000BA0BEE1F88F7E0950895E89409C097FB53
:100370003EF490958095709561957F4F8F4F9F4F7C
:100380009923A9F0F92F96E9BB279395F6958795C0
:1003900077956795B795F111F8CFFAF4BB0F11F483
:1003A00060FF1BC06F5F7F4F8F4F9F4F16C088232A
:1003B00011F096E911C0772321F09EE8872F762F60
:1003C00005C0662371F096E8862F70E060E02AF0A1
:1003D0009A95660F771F881FDAF7880F969587958D
:1003E00097F90895990F0008550FAA0BE0E8FEEF62
:1003F00016161706E807F907C0F012161306E407E9
:10040000F50798F0621B730B840B950B39F40A26E1
:1004100061F0232B242B252B21F408950A2609F4BF
:10042000A140A6958FEF811D811D089597F99F67C3
:1004300080E870E060E008959FEF80EC089500246C
:100440000A941616170618060906089500240A9439
:1004500012161306140605060895092E0394000CBF
:1004600011F4882352F0BB0F40F4BF2B11F460FF4E
:1004700004C06F5F7F4F8F4F9F4F089557FD905877
:10048000440F551F59F05F3F71F04795880F97FB58
:10049000991F61F09F3F79F0879508951216130612
:1004A0001406551FF2CF4695F1DF08C01616170641
:1004B0001806991FF1CF8695710561050894089576
:1004C000E894BB2766277727CB0197F90895A1E227
:1004D0001A2EAA1BBB1BFD010DC0AA1FBB1FEE1FBE
:1004E000FF1FA217B307E407F50720F0A21BB30B09
:1004F000E40BF50B661F771F881F991F1A9469F785
:1005000060957095809590959B01AC01BD01CF01E0
:060510000895F894FFCFEE
:00000001FF
